:1000000067C08BC00AC22FC488C087C086C085C0A5
:1000100084C083C003C481C080C07FC07EC01C0375
:100020005500530042002D005300740079006C000D
:100030006F00630061007200640018034D006900E6
:100040007400780065006C0061002E0063006F0092
:100050006D000403090409026500020100806409BF
:100060000400000001010000092401000109000151
:1000700001090401000201030000072401000141FD
:1000800000062402010100062402020200092403E2
:100090000103010201000924030204010101000916
:1000A00005010308000A0000052501010109058179
:1000B0000308000A000005250101031201100100D8
:1000C0000000081313E415000101020001002706D7
:1000D00011241FBECFE5D2E0DEBFCDBF10E0A0E609
:1000E000B0E0EAE6FCE002C005900D92AE38B10740
:1000F000D9F720E0AEE8B0E001C01D92AD3DB207F7
:10010000E1F710E0C0EDD0E003C02297FE01A7D5D3
:10011000CE3CD107D1F7DBD3A6C572CFCF93C62F84
:100120002091B20024FF07C02091B30038E82327B4
:100130002093B30003C02AE52093B200DC01E4EB76
:10014000F0E09C2F9E0F8D918193892F8E1B1816A6
:10015000D4F36C2F84EB90E049D1CC5FC093B20014
:10016000CF910895CF93DF936091C300635067FDF3
:10017000A8C08091C000CCE0D0E0C81BD109C95311
:10018000DF4F8091BF00803118F4CE011AD393C0A5
:100190008D3209F081C0683009F08DC083EC809306
:1001A000A7008AE58093610010928F008881807695
:1001B00019F0CE01EDD25DC09A811092B000898114
:1001C000811106C01092B10020EB30E082E04DC0FA
:1001D000853019F49093C40045C0863069F58B8151
:1001E000813011F0823019F4CE01BED221C08330AB
:1001F000F1F4911108C082E590E09093C2008093E1
:10020000C10084E015C0913041F48AE390E09093FE
:10021000C2008093C10088E10BC0923041F48EE1AE
:1002200090E09093C2008093C1008CE101C080E017
:1002300090E490938F001DC0883069F0893019F4E4
:100240009093C6000FC08A3049F08B3059F48BE48C
:100250008093B30007C026EC30E002C020EB30E012
:1002600081E003C020EB30E080E03093C2002093B7
:10027000C1008F3F39F4988197FD8E8190E890936B
:100280008F0007C09F81911104C09E81981708F4C8
:10029000892F809360000FC080918F0087FF0BC073
:1002A000CE018DD28F3F21F48EE18093610003C097
:1002B0008111109260008091C300181614F41092FE
:1002C000C3008091610084FF56C0809160008F3F21
:1002D00009F451C0C82F893008F0C8E08C1B809306
:1002E00060008091A70098E889278093A700CC231D
:1002F00089F180918F0087FF08C06C2F88EA90E019
:1003000054D2C82F893088F525C04091C100509142
:10031000C20086FF0BC0A8EAB0E0FA018C2F8A0F5A
:1003200094919D9331968A13FBCF09C0DA01E8EAD4
:10033000F0E08C2F8E0F9D9191938E13FCCF2FEFB9
:100340002C0F30E02F5F3F4F240F351F3093C2003A
:100350002093C1006C2F88EA90E048D0CC5FCC306D
:1003600041F08FEF8093600004C08FEF80936000B6
:10037000CEE1C093610084E196B3987131F481506D
:10038000D9F71092C4001092BE00C1E08111C0E004
:1003900080918E008C1739F0C11103C0F89461D19F
:1003A0007894C0938E00DF91CF910895AC9A8BB76B
:1003B00080628BBF8BE48093B3008AE58093B200A8
:1003C0000895A82FB92F80E090E041E050EA6095B1
:1003D00030E009C02D9182279795879510F08427EA
:1003E0009527305EC8F36F5FA8F30895EADF8D9319
:1003F0009D930895A6E088279927AA9569F001970B
:10040000E1F3B399FCCFB39BFECF81E09927A6B36C
:10041000019611F0A871D9F70895CF93CFB7CF9374
:10042000DF93C395B39BE9F7B39B0BC0B39B09C0A4
:10043000B39B07C0B39B05C0B39B03C0B39B01C074
:100440008EC06F93C091C000DD27C953DF4F2F933B
:1004500065E5B39B03C02F916F91E6CF0F931F9378
:100460004F9320E040E15F9306B3087103FB27F947
:100470003F9350E03BE039C0187140642F77012F63
:100480005F5F1EC0406816B318712F7752501FC0AF
:10049000406406B32F770871D1F15F5F00C023C0BD
:1004A000406216B32F77187191F15F5F00C025C0CD
:1004B00008711027515012F45D5F0000115027950C
:1004C0002C3F16B3C8F618710127015027952C3F11
:1004D000C8F64227499306B3087110274F7311508D
:1004E00027952C3FA8F64695469516B3187179F0D6
:1004F0000127015027952C3F98F66B5A60F3315035
:1005000006B3B0F600C010E21ABF00271CC03B5073
:100510003195C31BD04010E21ABF0881033C21F182
:100520000B3411F12091BE001981110F1213EDCF80
:100530004A81441F093669F10D3211F0013E29F755
:100540004F7009F0042F0093C5003F915F914F91C8
:100550001F910F912F916F91CAB7C5FD62CFDF91A7
:10056000CF91CFBFCF9118952091C500222369F379
:100570001091C300112391F5343092F13093C300F0
:100580002093BF001091C0003BE0311B3093C000AE
:1005900027C00091C30001300CF50AE54F7049F403
:1005A0003091610034FD1DC000936100C7EAD0E0C6
:1005B0001CC03091B20034FD14C00093B200C3EBF4
:1005C000D0E013C0052710E000C0000008BB1AC02F
:1005D000052710E0221F1DC010E021C04AE502C01F
:1005E00032ED432FC4E1D0E032E017B31861C39A73
:1005F00008B317BB58E120E865E320FF052708BBD7
:10060000279517951C3FF0F66695B8F7B1F720FFD0
:10061000052708BB279517951C3FD0F627951795FA
:1006200017FF052700001C3F08BBB0F629913A953B
:1006300019F7077E1091C400110FC651D04008BBB6
:1006400011F01093BE0010E21ABF086017B3177EB6
:10065000402F477E54E05A95F1F708BB17BB48BBC3
:1006600074CFDF92EF92FF920F931F93CF93DF939C
:10067000C8E0D0E0F12C80E8E82EDF2CDE0CD1BE03
:10068000B9DE8C010C3E88E018070CF4FD2CE694D2
:100690002197209791F78FEF8F0D81BFCF2DD0E05D
:1006A000219681B790E0C817D9078CF0A3DE8C5E45
:1006B000984097FF03C09195819591098017910704
:1006C00014F4F1B68C0181B78F5F81BFEACFF1BE20
:1006D000DF91CF911F910F91FF90EF90DF900895E0
:1006E000CF92DF92EF92FF920F931F93CF93DF93FE
:1006F00000D000D0CDB7DEB70091A2001091A300CA
:100700002091A4003091A5001616170618061906A8
:10071000F4F4C090A200D090A300E090A400F09068
:10072000A5006C197D098E099F09600F711F821F3A
:10073000931F69837A838B839C8314DD2091B2009D
:10074000970186019C818B817A816981DDCF0F9031
:100750000F900F900F90DF91CF911F910F91FF900D
:10076000EF90DF90CF900895FC018381813041F4B8
:100770008BEB90E09093C2008093C10083E10895D9
:1007800086E590E09093C2008093C10085E60895CD
:10079000FC018081982F9076903229F487FD03C068
:1007A00081E08093A60080E00895FC011082118210
:1007B0001282138214821582168287E0089581E0E6
:1007C000089508956DBB9FBB8EBBE29AE19AE199B3
:1007D000FECF1CBA08959FBB8EBBE09A8DB30895DF
:1007E00020E030E060E086B1806586B9349BFECFC2
:1007F00084B195B1A9014A5F5F4F4817590714F4B6
:1008000060E009C04C50510984179507CCF36F5F25
:10081000643619F0C9019C01E6CF08951F920F922A
:100820000FB60F9211248F939F93AF93BF93809134
:10083000A2009091A300A091A400B091A500019600
:10084000A11DB11D8093A2009093A300A093A400CA
:10085000B093A500BF91AF919F918F910F900FBE64
:100860000F901F9018951F920F920FB60F921124A0
:100870002F933F934F935F936F937F938F939F93A8
:10088000AF93BF93EF93FF936DDC8091B200FF9124
:10089000EF91BF91AF919F918F917F916F915F91F8
:1008A0004F913F912F910F900FBE0F901F90189571
:1008B000F894BB9A2FEF80E792E02150804090405F
:1008C000E1F700C00000BB9871DD78940895CF93E4
:1008D000DF9300D000D0CDB7DEB788B3836088BB8C
:1008E00082E090E078DF811122C082E08ABD83E05F
:1008F00083BF8AEF89BD89B7806189BF6CED75E0E0
:1009000080E090E0EDDE8BE880BF8CE98EBD89B79A
:10091000806489BF81E087B982EC86B9FF24F394B3
:1009200018E050E9E52E6FE7D62E00E893C042E6C6
:10093000E42E40E0F42E00E010E05801AA0CBB1CAD
:10094000C50149DFD82EC501019645DF2D2D30E0C8
:10095000382BF701219331937F010F5F1F4F043133
:10096000110559F7C2CF811112C08091A200909158
:10097000A300A091A400B091A5008093960090934D
:100980009700A0939800B0939900F0929000809106
:100990009100B099C1C0811112C08091A2009091C4
:1009A000A300A091A400B091A5008093960090931D
:1009B0009700A0939800B0939900F092910086B1AF
:1009C000806586B9349BFECF84B195B120919D009E
:1009D00030919E00A9014A5F5F4F481759070CF4F8
:1009E000C6C026503109821793070CF4C0C020916D
:1009F0009C002F5F20939C0020919C00283231F4B2
:100A000010929C0090939B0080939A0082E6882E1F
:100A100080E0982EA12CB12CF401219131914F014D
:100A200080919A0090919B00A9014A5F5F4F4817FF
:100A300059070CF0A3C0FFEFAF1ABF0A24E1A216BA
:100A4000B10451F780919A0090919B00873B9340AD
:100A50000CF0DDC080919000B19B85CF882309F414
:100A600096CF8091A2009091A300A091A400B09194
:100A7000A500409196005091970060919800709168
:100A80009900841B950BA60BB70BAC01BD014D5310
:100A90005109610971094B3A53406105710550F4E0
:100AA00080918B0090918C000C9790938C00809398
:100AB0008B002FC0893E9340A105B10550F122E67D
:100AC000822E20E0922EA12CB12CB099FECF88DE90
:100AD000843893407CF484B195B1F4019183808390
:100AE00064B13501660C771CC3016CDE65B1C301CE
:100AF000019668DE66EE70E080E090E0F1DDFFEFE9
:100B0000AF1ABF0A22E0820E911C84E1A816B1043C
:100B1000E1F6109290003BCF882309F450CF8091EA
:100B2000A2009091A300A091A400B091A5004091D3
:100B30009200509193006091940070919500841BF5
:100B4000950BA60BB70B87399105A105B10560F090
:100B500080918B0090918C000C968038910520F448
:100B600090938C0080938B001092910028CF10926C
:100B70009C0090939E0080939D003ECF26503109AB
:100B8000821793070CF457CF80918A0090E0A81643
:100B9000B90609F450CF70909F007720A9F080919A
:100BA000B20084FD07C0DEDA65E070E080E090E02E
:100BB00097DDF5CF19830A83872D8F778B831C826E
:100BC00064E0CE010196AADA60908B0070908C00F0
:100BD0008091B20084FD07C0C5DA65E070E080E076
:100BE00090E07EDDF5CF1983EA82C501860D971D61
:100BF0008F778B83DC8264E0CE0101968FDA80915F
:100C00008B008A0D80939F00A0928A0014CFB09031
:100C10009F00BB2009F41ECF8091B20084FD07C065
:100C2000A1DA65E070E080E090E05ADDF5CF19834D
:100C30000A838B2D8F778B831C8264E0CE01019613
:100C40006DDA10929F008FEF80938A0003CF81EAC4
:100C500090E02EDE80EA90E02BCEEE0FFF1F059095
:0A0C6000F491E02D0994F894FFCF01
:100C6A00FF5A00005301FF016502AA02DA02FF02DD
:100C7A001B0332034503540361036C0376037F03AA
:0E0C8A0086038D03930398039D03FF2D000046
:00000001FF
