:1000000067C08BC00EC204C488C087C086C085C0CC
:1000100084C083C0C2C381C080C07FC07EC00403CF
:10002000090418034D0069007400780065006C0035
:1000300061002E0063006F006D001C03550053002B
:1000400042002D005300740079006C006F006300C3
:100050006100720064001201100100000008131317
:10006000E41500010102000100090265000201001F
:10007000806409040000000101000009240100015E
:100080000900010109040100020103000007240125
:1000900000014100062402010100062402020200C0
:1000A00009240301030102010009240302040101E0
:1000B00001000905010308000A00000525010101EE
:1000C0000905810308000A00000525010103010458
:1000D00011241FBECFE5D2E0DEBFCDBF10E0A0E609
:1000E000B0E0EAE2FDE002C005900D92AE38B10743
:1000F000D9F710E0AEE8B0E001C01D92AD3DB10708
:10010000E1F710E0C0EDD0E003C02297FE0107D672
:10011000CE3CD107D1F72AD406C672CFAB9A8BB7A3
:1001200080628BBF8BE48093B3008AE58093B2003A
:1001300008951F93DC01162F8091B20084FF07C041
:100140008091B30098E889278093B30003C08AE5C3
:100150008093B200912FE4EBF0E08D918193915068
:100160001916DCF384EB90E0612F44D11C5F1093EF
:10017000B2001F9108951F93CF93DF936091C30046
:10018000635067FDA9C08091C000CCE0D0E0C81BDF
:10019000D109C953DF4F8091BF00803118F4CE01DF
:1001A000D1D294C08D3209F081C0683009F08EC080
:1001B00083EC8093A7008AE58093600010928F0003
:1001C0008881807621F0CE01A4D2282F5CC09A814C
:1001D0001092B0008981882321F41092B10022E0AE
:1001E0004BC0853019F49093C40045C0863079F532
:1001F0008B81813011F0823021F4CE0176D2282F0C
:1002000022C08330F9F48A81882341F48EE190E0A2
:100210009093C2008093C10024E015C0813041F466
:1002200082E290E09093C2008093C10028E10BC06D
:10023000823041F48AE390E09093C2008093C10041
:100240002CE101C020E080E480938F001CC0883046
:1002500021F421E086EC90E011C0893019F49093EC
:10026000C60009C08A3011F421E006C08B3019F4B1
:100270008BE48093B30020E080EB90E09093C20089
:100280008093C10009C02F3F39F4888187FD2E81FA
:1002900080E880938F0006C08F81882319F48E81B7
:1002A000821708F0822F8093610010C080918F0028
:1002B00087FF0CC0CE0144D28F3F21F48EE18093A2
:1002C000600004C0882311F0109261008091C30087
:1002D000181614F41092C3008091600084FF58C077
:1002E000809161008F3F09F453C0182F893008F0C6
:1002F00018E0811B809361008091A70098E889270E
:100300008093A700112391F180918F0087FF08C08F
:1003100088EA90E0612F0AD2182F893098F526C01C
:100320002091C1003091C20086FF0DC0A8EAB0E064
:1003300080E090E0F901E80FF91FE491ED93019658
:100340001817C1F708C0912FD901E8EAF0E08D91A4
:1003500081939150E1F71150812F90E01F5F01963A
:10036000820F931F9093C2008093C10088EA90E0AF
:10037000612F40D0612F6C5F6C3041F08FEF809324
:10038000610004C08FEF809361006EE160936000B4
:1003900094E186B3887131F49150D9F71092C4007A
:1003A0001092BE0010E0992309F411E080918E00B4
:1003B000811739F0112319F4F89457D178941093D8
:1003C0008E00DF91CF911F910895A82FB92F80E063
:1003D00090E041E050EA609530E009C02D9182271D
:1003E0009795879510F084279527305EC8F36F5F47
:1003F000A8F30895EADF8D939D930895A6E08827DA
:100400009927AA9569F00197E1F3B499FCCFB49BC1
:10041000FECF81E09927A6B3019611F0A871D9F714
:100420000895CF93CFB7CF93DF93C395B49BE9F7EC
:10043000B49B0BC0B49B09C0B49B07C0B49B05C060
:10044000B49B03C0B49B01C08EC06F93C091C00029
:10045000DD27C953DF4F2F9365E5B49B03C02F9170
:100460006F91E6CF0F931F934F9320E040E15F938E
:1004700006B3087104FB27F93F9350E03BE039C015
:10048000187140642F77012F5F5F1EC0406816B35C
:1004900018712F7752501FC0406406B32F77087130
:1004A000D1F15F5F00C023C0406216B32F7718718F
:1004B00091F15F5F00C025C008711027515012F400
:1004C0005D5F0000115027952C3F16B3C8F61871D8
:1004D0000127015027952C3FC8F64227499306B3C0
:1004E000087110274F73115027952C3FA8F6469599
:1004F000469516B3187179F00127015027952C3FC6
:1005000098F66B5A60F3315006B3B0F600C010E2B3
:100510001ABF00271CC03B503195C31BD04010E2CE
:100520001ABF0881033C21F10B3411F12091BE0068
:100530001981110F1213EDCF4A81441F093669F159
:100540000D3211F0013E29F74F7009F0042F00938E
:10055000C5003F915F914F911F910F912F916F9126
:10056000CAB7C5FD62CFDF91CF91CFBFCF911895AC
:100570002091C500222369F31091C300112391F546
:10058000343092F13093C3002093BF001091C0002B
:100590003BE0311B3093C00027C00091C300013005
:1005A0000CF50AE54F7049F43091600034FD1DC030
:1005B00000936000C7EAD0E01CC03091B20034FD67
:1005C00014C00093B200C3EBD0E013C0052710E0C5
:1005D00000C0000008BB1AC0052710E0221F1DC084
:1005E00010E021C04AE502C032ED432FC4E1D0E063
:1005F00032E017B31861C49A08B317BB58E120E87A
:1006000065E320FF052708BB279517951C3FF0F6EB
:100610006695B8F7B1F720FF052708BB2795179512
:100620001C3FD0F62795179517FF052700001C3FA4
:1006300008BBB0F629913A9519F7077E1091C400CE
:10064000110FC651D04008BB11F01093BE0010E24C
:100650001ABF006117B3177E402F477E54E05A95AA
:10066000F1F708BB17BB48BB74CFEF92FF920F9313
:100670001F93CF93DF9380E8F82E00E0C0E0D0E036
:10068000102F1F0D11BFBADE28E08C3E92070CF030
:10069000102FF6942196C830D10511F0012FF0CF1C
:1006A000115011BF1F5F7C01C12FD0E0219610C0F7
:1006B000A5DE8C5E984097FF03C0909581959F4F73
:1006C0008E159F0514F411B77C0181B78F5F81BF30
:1006D00081B790E0C817D9075CF711BFDF91CF91C0
:1006E0001F910F91FF90EF900895FC01838181305D
:1006F00041F486E590E09093C2008093C10083E1CD
:10070000089589E690E09093C2008093C10085E649
:100710000895FC01E0818E2F8076803229F4E7FD78
:1007200003C081E08093A60080E00895FC01108260
:1007300011821282138214821582168287E0089534
:1007400081E0089508956DBB9FBB8EBBE29AE19A4C
:10075000E199FECF1CBA08959FBB8EBBE09A8DB382
:10076000089560E040E050E002C0A90160E086B179
:10077000806586B9349BFECF24B135B1CA01069697
:100780008217930794F3CA010697281739076CF369
:100790006F5F643661F7C90108951F920F920FB61B
:1007A0000F9211248F939F93AF93BF9380919000EA
:1007B00090919100A0919200B09193000196A11D9B
:1007C000B11D8093900090939100A0939200B093FC
:1007D0009300BF91AF919F918F910F900FBE0F909B
:1007E0001F901895F894BC9A84EF91E020E931E0CD
:1007F000F9013197F1F70197D9F7BC988FDC78941C
:10080000089584E990E0EEDF85E990E0EBDF08955C
:100810001F920F920FB60F9211242F933F934F9375
:100820005F936F937F938F939F93AF93BF93EF9358
:10083000FF93A1DCFF91EF91BF91AF919F918F91B9
:100840007F916F915F914F913F912F910F900FBECC
:100850000F901F9018956F927F928F929F92AF92F8
:10086000BF92CF92DF92EF92FF920F931F93DF938D
:10087000CF9300D000D000D0CDB7DEB7962E842E17
:10088000722E602E29C077DC8091900090919100AB
:10089000A0919200B091930025E0E22EF12C012D61
:1008A000112DA0909000B0909100C0909200D09037
:1008B00093008A199B09AC09BD09E80EF91E0A1FAD
:1008C0001B1F59DC8091B2001E141F041006110674
:1008D0001CF4D601C501E5CF8091B20084FFD3CFCF
:1008E000062D0150003168F597FE2BC080EE89156A
:1008F00070F088E08B830F7009290C838FE78822C2
:100900008D8278227E82CE01039664E019C085EF45
:100910008915B8F48CEF891550F08AEF981650F4C9
:1009200086EF981639F088EF981659F403C08EEFC9
:10093000981638F08FE089839A82CE01019662E0A2
:10094000F8DB26960FB6F894DEBF0FBECDBFCF9171
:10095000DF911F910F91FF90EF90DF90CF90BF90AC
:10096000AF909F908F907F906F9008956F927F923D
:100970008F929F92AF92BF92CF92DF92EF92FF92AF
:100980000F931F93CF93DF9388B3836088BB82E07C
:1009900090E09FBB8EBBE09A8DB38823E1F0E5E643
:1009A000F0E040E050E0CA01880F991F9FBB8EBB6A
:1009B000E09A2DB301969FBB8EBBE09A8DB3982F22
:1009C00080E030E0282B392B219331934F5F5F4F2C
:1009D0004431510541F782E08ABD83E083BF8AEF4D
:1009E00089BD89B7806189BF809190009091910005
:1009F000A0919200B09193007CEDA72E75E0B72EE8
:100A0000C12CD12CE0909000F090910000919200C8
:100A1000109193008E199F09A00BB10BA80EB91E5F
:100A2000CA1EDB1EA8DB8091B200D801C7011A14D0
:100A30001B041C041D0434F38BE880BF8CE98EBDBD
:100A400089B7806489BF81E087B982EC86B9772451
:100A5000739466246A94B19918C08091A400882385
:100A600009F092C08091900090919100A091920025
:100A7000B091930080939C0090939D00A0939E0062
:100A8000B0939F007092A4007FC08091A40088233F
:100A900009F47AC020919000309191004091920029
:100AA0005091930080919C0090919D00A0919E0098
:100AB000B0919F00281B390B4A0B5B0BDA01C9016F
:100AC000CD97A109B1098B5A9340A040B04048F49A
:100AD00080916200909163000C97909363008093E3
:100AE0006200295E33404040504008F44BC065E648
:100AF000862E60E0962EC0E0D0E0B099FECF31DEC9
:100B0000845893407CF484B195B1F401918380833F
:100B10008E01000F111F64B1C80115DE65B1C80157
:100B2000019611DE8091900090919100A091920029
:100B3000B091930046EEA42EB12CC12CD12CE090A4
:100B40009000F090910000919200109193008E1906
:100B50009F09A00BB10BA80EB91ECA1EDB1E0BDB32
:100B60008091B200D801C7011A141B041C041D0493
:100B700034F3219682E090E0880E991EC431D105AD
:100B800009F0BBCF1092A400B09917C08091A500C6
:100B90008823F1F58091900090919100A0919200AE
:100BA000B091930080939C0090939D00A0939E0031
:100BB000B0939F007092A5002BC08091A500882360
:100BC00039F18091900090919100A0919200B091A4
:100BD00093002091A0003091A1004091A20050917B
:100BE000A300821B930BA40BB50B87399105A105BC
:100BF000B10560F080916200909163000C9680389E
:100C0000910520F490936300809362001092A500F8
:100C100086B1806586B9349BFECF44B155B1209131
:100C2000970030919800C9010696841795075CF0EB
:100C3000265030404217530734F0809199008F5F5F
:100C40008093990006C010929900509398004093A9
:100C5000970080919900883231F410929900509356
:100C60009B0040939A0035E6C32E30E0D32EC0E0BF
:100C7000D0E0F6012081318140919A0050919B0093
:100C8000C90106968417950744F126503040421753
:100C900053071CF18091640090E0C817D907E9F070
:100CA00040919600442331F085E990E060E820E02F
:100CB00001E0D1DD40916200509163004C0F5D1F57
:100CC00085E990E060E92FE701E0C5DD80916200F1
:100CD0008C0F80939600C0936400219682E090E090
:100CE000C80ED91EC431D10521F680919A00909189
:100CF0009B00875B93400CF4AECE4091960044235A
:100D000009F4A9CE85E990E060E820E001E0A3DDE8
:100D100010929600609264009ECEEE0FFF1F059029
:0A0D2000F491E02D0994F894FFCF40
:100D2A005AFF2D00FF00005301FF016502AA02DAF3
:100D3A0002FF021B0332034503540361036C03766B
:0E0D4A00037F0386038D03930398039D03002C
:00000001FF
